:03000000020800F3
:0C080000787FE4F6D8FD758113020847EC
:1009F70002100024020C005002120000020A0062DA
:080A0700020E000002080000CD
:1009A400E4FFFEE4FDFC0DBD00010CED640A4C7097
:0C09B400F50FBF00010EEF64054E70E768
:0109C0002214
:1009DD000511E51170020510D39428E5106480947B
:0A09ED0080400675100075112322EA
:100985007405250DF50DE4350CF50CD3E50D9478BE
:0F099500E50C648094804006750C00750D4622B9
:100A1000E513451270047F0180027F007512008F7C
:020A200013229F
:1009C100E50B150B7002150AC3E50B945AE50A6491
:0C09D1008094805006750A00750B6222AD
:10088C00D3E5119426E510648094804025D3E50DC2
:10089C00946EE50C648094804018E50B945EE50A38
:1008AC0064809480500CE51345127006F50E750F9C
:1008BC000422C3E50B945EE50A64809480500CE539
:1008CC001345127006F50E750F0322D3E51194260D
:1008DC00E51064809480400CE51345127006F50E0B
:1008EC00750F0122D3E50D946EE50C648094804065
:1008FC000CE51345127006F50E750F0222E4F50E89
:03090C00F50F22C2
:10090F00E50F6404450E7005C290C29122E50F6495
:10091F0003450E701CE509450870047F0180027FB6
:10092F00007508008F09E508450924FF9290929100
:10093F0022E50F6401450E7005C290D29122E50F9A
:0F094F006402450E7005D290C29122D290D291CF
:01095E002276
:10095F001209DD1209A41209851209A4120A101234
:10096F0009A41209C11209A412088C1209A41209B0
:06097F000F1209A480DA4A
:10080C0002095FE493A3F8E493A34003F68001F29A
:10081C0008DFF48029E493A3F85407240CC8C333ED
:10082C00C4540F4420C8834004F456800146F6DFBC
:10083C00E4800B01020408102040809009F7E47E4C
:10084C00019360BCA3FF543F30E509541FFEE493B1
:10085C00A360010ECF54C025E060A840B8E493A378
:10086C00FAE493A3F8E493A3C8C582C8CAC583CAA3
:10087C00F0A3C8C582C8CAC583CADFE9DEE780BE5B
:010A0F0000E6
:00000001FF
